:1000000088C00000A6C00000A4C00000A2C000007C
:10001000A0C000009EC000009CC000009AC000006C
:1000200098C0000096C0000094C0000092C000007C
:1000300090C000008EC000008CC000008AC000008C
:1000400088C0000086C0000084C0000082C000009C
:1000500080C000007EC000007CC000007AC00000AC
:1000600078C0000076C0000074C0000072C00000BC
:1000700070C000006EC000006CC000006AC00000CC
:1000800068C0000066C0000064C0000062C00000DC
:1000900060C000005EC000005CC000005AC00000EC
:1000A00058C0000056C0000054C0000052C00000FC
:1000B00050C000004EC000004CC000004AC000000C
:1000C00048C0000046C0000044C0000042C000001C
:1000D00040C000003EC000003CC000003AC000002C
:1000E00038C00000084AD73B3BCE016E84BCBFFD40
:1000F000C12F3D6C74319ABD56833DDA3D00C77FF8
:1001000011BED9E4BB4C3E916BAAAABE0000008090
:100110003F0011241FBECFEFD1E2DEBFCDBF00E014
:100120000CBF13E0A0E0B2E0E4ECF5E100E00BBFAF
:1001300002C007900D92A430B107D9F723E0A4E0E4
:10014000B3E001C01D92A432B207E1F705D70C94C9
:10015000E00A56CF1092B90088E48093B800089561
:1001600094EA9093BC00ECEBF0E090819923ECF7DB
:100170009091B900987F983011F09031A1F480935C
:10018000BB0084E88093BC00ECEBF0E08081882326
:10019000ECF79091B900987F983139F081E0903474
:1001A00029F480E0089581E0089580E00895CF93D8
:1001B000DF93ECEBF0E024EAA9EBB0E0CBEBD0E08E
:1001C00034E844E9208390819923ECF79C91987F4F
:1001D000983011F09031B1F7888330839081992362
:1001E000ECF79C91987F903211F0983529F4408378
:1001F000908194FDFDCFE6CFDF91CF91089584E902
:100200008093BC00ECEBF0E0808184FDFDCF08958D
:100210008093BB0084E88093BC00ECEBF0E080812D
:100220008823ECF79091B900987F81E0983209F427
:1002300080E0089584EC8093BC00ECEBF0E08081DA
:100240008823ECF78091BB00089584E88093BC007C
:10025000ECEBF0E080818823ECF78091BB000895FF
:100260009C0140E050E060E074E284EF90E00E9486
:10027000880ADA01C901689412F8B595A79597958F
:1002800087951694D1F79C01215031093093C50010
:100290002093C40082E08093C00086E08093C20077
:1002A00088E18093C1000895CF93DF93EC0128810A
:1002B000222389F030E0E0ECF0E046EC50E0908161
:1002C00095FFFDCFDA012C933F5FDE01A30FB11D37
:1002D0002C912111F4CFDF91CF910895E0ECF0E063
:1002E000908195FFFDCF8093C60008950F931F93D3
:1002F000CF93DF938C0168EE73E00E94750A80E370
:10030000860FECDFC80164E670E00E94750ACB013D
:10031000CAE0D0E0BE010E94750A805DDFDFC8013F
:10032000BE010E94750A182FCB01BE010E94750AFA
:10033000805DD4DF80E3810FD1DFDF91CF911F910A
:100340000F910895CF93DF93D82FC62F8CE308DF4A
:100350008D2F5EDF8C2F5CDF52DFDF91CF91089510
:10036000CF92DF92EF92FF926B017C012EEA37E48D
:1003700041E65FE3D5D681110EC088E491EEAAE391
:10038000BFE38093000290930102A0930202B09316
:10039000030260E0A2C026E636E646EA5FE3C70154
:1003A000B601BED681110EC08FE195E8ABE6BFE382
:1003B0008093000290930102A0930202B093030283
:1003C00061E08BC023E333E343EF5FE3C701B60192
:1003D000A7D681110EC086EF98E2ACE9BFE3809307
:1003E000000290930102A0930202B093030262E024
:1003F00074C020E030E040E250E4C701B60190D67E
:1004000081110EC08CE59FE8A2ECBFE3809300024F
:1004100090930102A0930202B093030263E05DC0D7
:1004200020E030E040E850E4C701B60179D6811100
:100430000EC08EEA97E4A1E1B0E4809300029093AD
:100440000102A0930202B093030264E046C026E6D4
:1004500036E646E950E4C701B60162D681110EC006
:100460008AE097EDA3E2B0E480930002909301024A
:10047000A0930202B093030265E02FC023E333E3AD
:1004800043EB50E4C701B6014BD681110EC085E89D
:100490009BEEA1E4B0E48093000290930102A0934C
:1004A0000202B093030266E018C02AE939E941E08C
:1004B00051E4C701B60134D681110EC083E393E342
:1004C000ABE8B0E48093000290930102A093020293
:1004D000B093030267E001C060E06295660F607E42
:1004E00070E081E090E02EDFFF90EF90DF90CF9002
:1004F000089560E770E080E090E024DF66E676E64D
:1005000086E990E42DDF60E070E082E090E01ACFB1
:100510000895CF92DF92EF92FF920F931F93CF93A4
:10052000DF936C01E62E8CE342DE83E071DE67DE52
:100530008DE316DEF12C81E0E81AF1081E141F0489
:1005400074F4C0E086010C0F111D74DEF801808385
:10055000CF5F2C2F30E02E153F05A4F301C0C0E083
:10056000C6018C0F911DEC0170DE888348DEDF919F
:10057000CF911F910F91FF90EF90DF90CF90089552
:100580000F931F93CF93DF9300D000D0CDB7DEB78A
:100590008C0166E0CE010196BCDF898190E0982F46
:1005A00088272A81822BF801918380838B8190E0B8
:1005B000982F88272C81822B938382832D8130E092
:1005C000322F22278E81282B3583248326960FB63F
:1005D000F894DEBF0FBECDBFDF91CF911F910F9179
:1005E0000895CF92DF92EF92FF920F931F93CF93D4
:1005F000DF9300D000D0CDB7DEB78C01CE010196DD
:10060000BFDF69817A81072E000C880B990B27D6F2
:1006100020910002309101024091020250910302A8
:10062000FED6F8016083718382839383C0900002B9
:10063000D0900102E0900202F09003026B817C8175
:10064000072E000C880B990B0AD6A7019601E7D656
:10065000F80164837583868397838D819E81BC01B5
:10066000990F880B990BFBD59B01AC01C701B60113
:10067000D6D6F801608771878287938726960FB652
:10068000F894DEBF0FBECDBFDF91CF911F910F91C8
:10069000FF90EF90DF90CF9008952F923F924F926E
:1006A0005F926F927F928F929F92AF92BF92CF9202
:1006B000DF92EF92FF920F931F93CF93DF93CDB70B
:1006C000DEB7A6970FB6F894DEBF0FBECDBF7C0194
:1006D0008D7F019709F052C161E780E033DECE01E2
:1006E00001964EDF49815A81CB80DC80AD80BE808F
:1006F00091E028ECC216D1040CF090E081E0483C77
:1007000051050CF080E0892B41F481E098ECA916AA
:10071000B1040CF080E0882301F111E000E0CE018B
:1007200001962EDF49815A81CB80DC80AD80BE806E
:10073000912FA8ECCA16D1040CF0902F812F483CC1
:1007400051050CF0802F892B51F7812FB8ECAB1697
:10075000B1040CF0802F8111E2CF40900002509044
:100760000102609002027090030204E012E0BA01FC
:10077000550F880B990B73D5A301920150D69B019D
:10078000AC0160E070E081E994E4CED4F8016083CC
:10079000718382839383B601DD0C880B990B5FD53F
:1007A0009B01AC01C301B2013AD69B01AC0160E0F0
:1007B00070E081E994E4B8D4D80114966D937D93E8
:1007C0008D939C931797B501BB0C880B990B47D55C
:1007D0009B01AC01C301B20122D69B01AC0160E0D8
:1007E00070E087E894E4A0D4F8016087718782877D
:1007F000938762E780E0A6DDCE010196C1DE6981C4
:100800007A81CB80DC80AD80BE8091E0F9E3CF16A9
:10081000FFEFDF060CF490E081E069332FEF720701
:100820000CF480E0892B49F481E099E3A9169FEF4D
:10083000B9060CF480E0882319F111E000E0CE0144
:1008400001969EDE69817A81CB80DC80AD80BE809E
:10085000912FA9E3CA16AFEFDA060CF4902F812F7F
:100860006933BFEF7B070CF4802F892B41F7812F71
:10087000E9E3AE16EFEFBE060CF4802F8111DFCF57
:1008800040900002509001026090020270900302BA
:10089000072E000C880B990BE2D4A3019201BFD55F
:1008A00089D6BC0104E012E00F2EF8E88F2EF4E0A8
:1008B0009F2EF02DC40119D6072E000C880B990B22
:1008C000CED4D80114962D913D914D915C911797FE
:1008D0009BD320E030E040E05FE3A1D5F8016083E6
:1008E000718382839383B601DD0C880B990BB7D497
:1008F0009B01AC01C301B20192D55CD6BC01C4011D
:10090000F4D5072E000C880B990BA9D4D8011896A2
:100910002D913D914D915C911B9776D320E030E075
:1009200040E05FE37CD5F801648375838683978319
:10093000B501BB0C880B990B92D49B01AC01C30190
:10094000B2016DD537D6BC0188E394E0CED5072E31
:10095000000C880B990B83D4D8011C962D913D91E6
:100960004D915C911F9750D320E030E040E05FE371
:1009700056D5F801608771878287938768E780E0A2
:10098000E1DCF2E0EF1AF10822E0E216F10408F0EF
:10099000A8C180E192E088DC8CE392E085DC8FE303
:1009A00092E082DC8CE392E07FDC1AE0CE010196DB
:1009B000E7DD1150D9F781EA92E076DC8CE392E032
:1009C00073DC8FEF93EDA0E381509040A040E1F7FE
:1009D00000C0000089EB92E067DC8CE392E064DC0D
:1009E000BFEFE3EDF0E3B150E040F040E1F700C0CD
:1009F00000008BEB92E058DC8CE392E055DC2FEFAB
:100A000083ED90E3215080409040E1F700C000006A
:100A10008DEB92E049DC8CE392E046DCC12CD12CDA
:100A200076011BA21CA21DA21EA21F8E18A2AAE75D
:100A3000A9A3B5E4BAA31B8E1C8EEAE7ED8FF5E4FB
:100A4000FE8F1F8A188E2AE7298F85E48A8F1B8ADA
:100A50001C8A9AE79D8BA5ECAE8B1F86188ABAE795
:100A6000B98BE5ECEA8B1B861C86FAE7FD8725EC43
:100A70002E870F2EF4E02F2EF2E03F2EF02DCE0128
:100A800001967EDD409000025090010260900202CB
:100A90007090030269817A81072E000C880B990BF4
:100AA000DED3A3019201BBD4D1012D913D914D9193
:100AB0005C91B5D46F83072F182F98876B817C8149
:100AC000072E000C880B990BCAD39B01AC01C30104
:100AD000B201A5D4F10124813581468157819FD48B
:100AE00069877A87B82EA92E6D817E81072E000C2A
:100AF000880B990BB4D39B01AC01C301B2018FD415
:100B0000D10118962D913D914D915C911B9787D401
:100B1000962E872E782E692E2B853C854D855E85F9
:100B20006F81702F812F9885FBD2882334F0BF818D
:100B3000BB870C871D87E885EE872F853889498913
:100B40005A8969857A858B2D9A2DEAD2882334F0CB
:100B5000F985FF872A85288BB98AAA8A2B893C893F
:100B60004D895E89692D782D872D962DD9D28823C0
:100B700024F09B8A8C8A7D8A6E8A2F89388D498DD4
:100B80005A8D6F81702F812F98853ED4181634F0BE
:100B90008F818F8B088F198F98859A8F2B8D3C8D25
:100BA0004D8D5E8D69857A858B2D9A2D2DD41816E5
:100BB00034F0A985AB8FBA85BC8FBD8EAE8E2F8DDC
:100BC00038A149A15AA1692D782D872D962D1CD4C5
:100BD000181624F09F8E88A279A26AA28BA19CA1EC
:100BE000ADA1BEA1C816D906EA06FB06C9F4B60136
:100BF0000D2C000C880B990B20E432E44FE050E000
:100C000087D4C90173DB8CE392E04EDBD701C601C8
:100C1000805C9D4BA04FBF4F8BA39CA3ADA3BEA3F5
:100C20009FEFC91AD90AE90AF90AA1E8CA16A3EC82
:100C3000DA06A9ECEA06A1E0FA0609F020CF04E002
:100C400013E02F89388D498D5A8D6B857C858D8574
:100C50009E85D9D120E030E040E05FE3E0D32B85F2
:100C60003C854D855E85CFD1F80160837183828399
:100C700093832B8D3C8D4D8D5E8D6F857889898911
:100C80009A89C1D120E030E040E05FE3C8D32F85EE
:100C9000388949895A89B7D1D80114966D937D93C3
:100CA0008D939C9317972F8D38A149A15AA16B89D9
:100CB0007C898D899E89A7D120E030E040E05FE308
:100CC000AED32B893C894D895E899DD1F80160871F
:100CD0007187828793878FEB92E0E6DA8CE392E06C
:100CE000E3DAA6960FB6F894DEBF0FBECDBFDF9154
:100CF000CF911F910F91FF90EF90DF90CF90BF9019
:100D0000AF909F908F907F906F905F904F903F90AB
:100D10002F9008958F929F92AF92BF92CF92DF92C1
:100D2000EF92FF920F931F93CF93DF9300D000D0E9
:100D3000CDB7DEB78C01CE01019622DC69817A81C4
:100D4000072E000C880B990B8AD22091000230915B
:100D50000102409102025091030261D30F2EF4E090
:100D6000CF2EF2E0DF2EF02DF6012081318142817D
:100D7000538155D30F2EF4E0EF2EF3E0FF2EF02D2C
:100D8000F70120813181428153813ED1F801608396
:100D90007183828393838090000290900102A090DF
:100DA0000202B09003026B817C81072E000C880B3D
:100DB000990B55D2A501940132D3F60124813581D6
:100DC000468157812CD3F701248135814681578193
:100DD0001BD1F80164837583868397838D819E81FF
:100DE000BC01990F880B990B3AD29B01AC01C5014C
:100DF000B40115D3F60120853185428553850FD383
:100E0000F7012085318542855385FED0F801608742
:100E100071878287938726960FB6F894DEBF0FBE40
:100E2000CDBFDF91CF911F910F91FF90EF90DF9099
:100E3000CF90BF90AF909F908F900895BF92CF9228
:100E4000DF92EF92FF920F931F93CF93DF93CDB773
:100E5000DEB72C970FB6F894DEBF0FBECDBFCE0124
:100E6000019658DFCD80DE80EF80F88420E030E00E
:100E7000A901C701B601C8D21816E4F4A70196016A
:100E800069817A818B819C814FD122D120E030E031
:100E900044E353E4C4D22BED3FE049E450E444D1B1
:100EA0009B01AC0160E070E084EB92E4ACD0A4D193
:100EB0008B0102C000E010E020E030E0A901C70192
:100EC000B6012ED18823DCF4A701960169817A81CD
:100ED0008B819C8129D1FCD020E030E044E353E4B5
:100EE0009ED22BED3FE049E450E41ED19B01AC01C2
:100EF00060E070E087E893E486D07ED18B0120E04B
:100F000030E0A90169817A818B819C8109D1882394
:100F100074F4BB24B39420E030E0A901C701B6010A
:100F2000FFD08111B12CBB2011F004EB10E0B8010F
:100F3000110F880B990B93D12C960FB6F894DEBF46
:100F40000FBECDBFDF91CF911F910F91FF90EF901A
:100F5000DF90CF90BF90089580E895E281D9FAD8CC
:100F6000C8DA8CE193E00CDB81EE92E09DD9CCE114
:100F7000D3E088819981BAD987EE92E095D98A81A8
:100F80009B81B4D98DEE92E08FD98C819D81AED9B1
:100F90008CE392E089D983E090E07FDB80E193E00D
:100FA00020DB4CDF29D1709323036093220381EE71
:100FB00092E07AD9C0E1D3E0688179818A819B810E
:100FC0001BD1CB0193D987EE92E06ED96C817D81E4
:100FD0008E819F8111D1CB0189D98DEE92E064D9A8
:100FE000688579858A859B8507D1CB017FD983EF79
:100FF00092E05AD9809122039091230377D98CE310
:1010000092E052D9CBCF5058BB27AA270ED0C2C1ED
:10101000B3D130F0B8D120F031F49F3F11F41EF479
:1010200083C10EF4E095E7FB79C1E92FC4D180F3C9
:10103000BA17620773078407950718F071F49EF5D5
:10104000DCC10EF4E0950B2EBA2FA02D0B01B901D7
:1010500090010C01CA01A0011124FF27591B99F02E
:10106000593F50F4503E68F11A16F040A22F232F3A
:10107000342F4427585FF3CF469537952795A7958A
:10108000F0405395C9F77EF41F16BA0B620B730B31
:10109000840BBAF09150A1F0FF0FBB1F661F771FA2
:1010A000881FC2F70EC0BA0F621F731F841F48F457
:1010B000879577956795B795F7959E3F08F0B3CFDD
:1010C0009395880F08F09927EE0F979587950895C7
:1010D000DF93DD27B92FBF7740E85FE316161706C9
:1010E00048075B0710F4D92F93D19F938F937F9379
:1010F0006F93F8D1E4EEF0E01AD14CD12F913F91EB
:101100004F915F9198D1DD2349F09058A2EA2AEDE2
:101110003FE049EC5FE3D0785D2787DFDF913AC19C
:10112000D9D008F481E008950CD034C12CD140F01E
:1011300023D130F021F45F3F19F0F0C051115EC1AE
:10114000F3C039D198F39923C9F35523B1F3951B13
:10115000550BBB27AA2762177307840738F09F5FD8
:101160005F4F220F331F441FAA1FA9F333D00E2E47
:101170003AF0E0E830D091505040E695001CCAF7B4
:1011800029D0FE2F27D0660F771F881FBB1F261779
:1011900037074807AB07B0E809F0BB0B802DBF014C
:1011A000FF2793585F4F2AF09E3F510568F0B6C065
:1011B00025C15F3FECF3983EDCF386957795679504
:1011C000B795F7959F5FC9F7880F911D96958795FD
:1011D00097F90895E1E0660F771F881FBB1F62171C
:1011E00073078407BA0720F0621B730B840BBA0BDA
:1011F000EE1F88F7E095089504D06894B111FEC001
:101200000895E1D088F09F5790F0B92F9927B751F2
:10121000A0F0D1F0660F771F881F991F1AF0BA95BA
:10122000C9F712C0B13081F0E8D0B1E00895E5C04F
:10123000672F782F8827B85F39F0B93FCCF38695B0
:1012400077956795B395D9F73EF49095809570950D
:1012500061957F4F8F4F9F4F0895E89409C097FB8A
:101260003EF490958095709561957F4F8F4F9F4F7D
:101270009923A9F0F92F96E9BB279395F6958795C1
:1012800077956795B795F111F8CFFAF4BB0F11F484
:1012900060FF1BC06F5F7F4F8F4F9F4F16C088232B
:1012A00011F096E911C0772321F09EE8872F762F61
:1012B00005C0662371F096E8862F70E060E02AF0A2
:1012C0009A95660F771F881FDAF7880F969587958E
:1012D00097F90895990F0008550FAA0BE0E8FEEF63
:1012E00016161706E807F907C0F012161306E407EA
:1012F000F50798F0621B730B840B950B39F40A26E3
:1013000061F0232B242B252B21F408950A2609F4C0
:10131000A140A6958FEF811D811D089597F99F67C4
:1013200080E870E060E008959FEF80EC0895DF931F
:10133000CF931F930F93FF92EF92DF927B018C016B
:10134000689405C0DA2EEF0176D0FE01E894A591ED
:101350002591359145915591AEF3EF0166DEFE0181
:101360009701A801DA9479F7DF90EF90FF900F9141
:101370001F91CF91DF91089500240A941616170645
:1013800018060906089500240A9412161306140676
:1013900005060895092E0394000C11F4882352F0D9
:1013A000BB0F40F4BF2B11F460FF04C06F5F7F4F91
:1013B0008F4F9F4F089557FD9058440F551F59F078
:1013C0005F3F71F04795880F97FB991F61F09F3F32
:1013D00079F087950895121613061406551FF2CF5B
:1013E0004695F1DF08C0161617061806991FF1CFAB
:1013F00086957105610508940895E894BB276627D2
:101400007727CB0197F9089565DF08F48FEF0895EA
:101410009B01AC0160E070E080E89FE385CE0BD0DB
:10142000B9CFAADF28F0AFDF18F0952309F076CF07
:101430007BCF1124E3CFBFDFA0F3959FD1F3950FAE
:1014400050E0551F629FF001729FBB27F00DB11D48
:10145000639FAA27F00DB11DAA1F649F6627B00DD8
:10146000A11D661F829F2227B00DA11D621F739FC1
:10147000B00DA11D621F839FA00D611D221F749FCF
:101480003327A00D611D231F849F600D211D822F16
:10149000762F6A2F11249F5750408AF0E1F088235D
:1014A0004AF0EE0FFF1FBB1F661F771F881F91506A
:1014B0005040A9F79E3F510570F030CF9FCF5F3F5E
:1014C000ECF3983EDCF3869577956795B795F7959D
:1014D000E7959F5FC1F7FE2B880F911D9695879525
:1014E00097F908959B01AC019ACF97FB072E16F44C
:1014F000009406D077FD08D027D007FC05D03EF435
:10150000909581959F4F0895709561957F4F0895AF
:10151000052E97FB16F400940FD057FD05D028D068
:1015200007FC02D046F408C05095409530952195AF
:101530003F4F4F4F5F4F08959095809570956195FF
:101540007F4F8F4F9F4F0895AA1BBB1B51E107C0D0
:10155000AA1FBB1FA617B70710F0A61BB70B881F43
:10156000991F5A95A9F780959095BC01CD010895D2
:10157000A1E21A2EAA1BBB1BFD010DC0AA1FBB1F97
:10158000EE1FFF1FA217B307E407F50720F0A21B09
:10159000B30BE40BF50B661F771F881F991F1A9476
:1015A00069F760957095809590959B01AC01BD01A0
:1015B000CF01089597FF03C09195819591090895F2
:0415C000F894FFCFCD
:1015C4000000803F0000803F0000803F0000803F1B
:1015D40043616C6962726174696E67207468652026
:1015E4004D61676E65746F6D65746572202E2E2E65
:1015F4002E2E2E2E204F6666736574000A0D005041
:101604006C6561736520726F7461746520746865BC
:10161400206D61676E65746F6D657465722032202C
:101624006F7220332074696D657320696E20636F57
:101634006D706C6574652063697263756C65732085
:101644007769746820696E206F6E65206D696E75A8
:101654007465202E2E2E2E2E2E2E2E2E2E2E2E2E37
:10166400005374617274696E672044656275672003
:101674006461746120696E200033003200310045DA
:101684006E64204465627567202D2D20284F6666A0
:101694007365742043616C6962726174696F6E2949
:1016A400002020783A20002020793A200020207A57
:1016B4003A20002020202020202068656164696E83
:0416C400673A200061
:00000001FF
