S00E00005052554542412E7372656357
S113000088C00000A6C00000A4C00000A2C0000078
S1130010A0C000009EC000009CC000009AC0000068
S113002098C0000096C0000094C0000092C0000078
S113003090C000008EC000008CC000008AC0000088
S113004088C0000086C0000084C0000082C0000098
S113005080C000007EC000007CC000007AC00000A8
S113006078C0000076C0000074C0000072C00000B8
S113007070C000006EC000006CC000006AC00000C8
S113008068C0000066C0000064C0000062C00000D8
S113009060C000005EC000005CC000005AC00000E8
S11300A058C0000056C0000054C0000052C00000F8
S11300B050C000004EC000004CC000004AC0000008
S11300C048C0000046C0000044C0000042C0000018
S11300D040C000003EC000003CC000003AC0000028
S11300E038C00000084AD73B3BCE016E84BCBFFD3C
S11300F0C12F3D6C74319ABD56833DDA3D00C77FF4
S113010011BED9E4BB4C3E916BAAAABE000000808C
S11301103F0011241FBECFEFD1E2DEBFCDBF00E010
S11301200CBF12E0A0E0B2E0E2ECF4E100E00BBFAF
S113013002C007900D92A23EB107D9F723E0A2EEC8
S1130140B2E001C01D92A230B207E1F784D60C944C
S11301505F0A56CF1092B90088E48093B8000895DE
S113016094EA9093BC00ECEBF0E090819923ECF7D7
S11301709091B900987F983011F09031A1F4809358
S1130180BB0084E88093BC00ECEBF0E08081882322
S1130190ECF79091B900987F983139F081E0903470
S11301A029F480E0089581E0089580E00895CF93D4
S11301B0DF93ECEBF0E024EAA9EBB0E0CBEBD0E08A
S11301C034E844E9208390819923ECF79C91987F4B
S11301D0983011F09031B1F788833083908199235E
S11301E0ECF79C91987F903211F0983529F4408374
S11301F0908194FDFDCFE6CFDF91CF91089584E9FE
S11302008093BC00ECEBF0E0808184FDFDCF089589
S11302108093BB0084E88093BC00ECEBF0E0808129
S11302208823ECF79091B900987F81E0983209F423
S113023080E0089584EC8093BC00ECEBF0E08081D6
S11302408823ECF78091BB00089584E88093BC0078
S1130250ECEBF0E080818823ECF78091BB000895FB
S11302609C0140E050E060E074E284EF90E00E9482
S1130270070ADA01C901689412F8B595A79597950C
S113028087951694D1F79C01215031093093C5000C
S11302902093C40082E08093C00086E08093C20073
S11302A088E18093C1000895CF93DF93EC01288106
S11302B0222389F030E0E0ECF0E046EC50E090815D
S11302C095FFFDCFDA012C933F5FDE01A30FB11D33
S11302D02C912111F4CFDF91CF910895E0ECF0E05F
S11302E0908195FFFDCF8093C60008950F931F93CF
S11302F0CF93DF938C0168EE73E00E94F40980E3EE
S1130300860FECDFC80164E670E00E94F409CB01BB
S1130310CAE0D0E0BE010E94F409805DDFDFC801BD
S1130320BE010E94F409182FCB01BE010E94F409FA
S1130330805DD4DF80E3810FD1DFDF91CF911F9106
S11303400F910895CF93DF93D82FC62F8CE308DF46
S11303508D2F5EDF8C2F5CDF52DFDF91CF9108950C
S1130360CF92DF92EF92FF926B017C012EEA37E489
S113037041E65FE354D681110EC088E491EEAAE30E
S1130380BFE38093000290930102A0930202B09312
S1130390030260E0A2C026E636E646EA5FE3C70150
S11303A0B6013DD681110EC08FE195E8ABE6BFE3FF
S11303B08093000290930102A0930202B09303027F
S11303C061E08BC023E333E343EF5FE3C701B6018E
S11303D026D681110EC086EF98E2ACE9BFE3809384
S11303E0000290930102A0930202B093030262E020
S11303F074C020E030E040E250E4C701B6010FD6FB
S113040081110EC08CE59FE8A2ECBFE3809300024B
S113041090930102A0930202B093030263E05DC0D3
S113042020E030E040E850E4C701B601F8D581117E
S11304300EC08EEA97E4A1E1B0E4809300029093A9
S11304400102A0930202B093030264E046C026E6D0
S113045036E646E950E4C701B601E1D581110EC084
S11304608AE097EDA3E2B0E4809300029093010246
S1130470A0930202B093030265E02FC023E333E3A9
S113048043EB50E4C701B601CAD581110EC085E81B
S11304909BEEA1E4B0E48093000290930102A09348
S11304A00202B093030266E018C02AE939E941E088
S11304B051E4C701B601B3D581110EC083E393E3C0
S11304C0ABE8B0E48093000290930102A09302028F
S11304D0B093030267E001C060E06295660F607E3E
S11304E070E081E090E02EDFFF90EF90DF90CF90FE
S11304F0089560E770E080E090E024DF66E676E649
S113050086E990E42DDF60E070E082E090E01ACFAD
S11305100895CF92DF92EF92FF920F931F93CF93A0
S1130520DF936C01E62E8CE342DE83E071DE67DE4E
S11305308DE316DEF12C81E0E81AF1081E141F0485
S113054074F4C0E086010C0F111D74DEF801808381
S1130550CF5F2C2F30E02E153F05A4F301C0C0E07F
S1130560C6018C0F911DEC0170DE888348DEDF919B
S1130570CF911F910F91FF90EF90DF90CF9008954E
S11305800F931F93CF93DF9300D000D0CDB7DEB786
S11305908C0166E0CE010196BCDF898190E0982F42
S11305A088272A81822BF801918380838B8190E0B4
S11305B0982F88272C81822B938382832D8130E08E
S11305C0322F22278E81282B3583248326960FB63B
S11305D0F894DEBF0FBECDBFDF91CF911F910F9175
S11305E00895CF92DF92EF92FF920F931F93CF93D0
S11305F0DF9300D000D0CDB7DEB78C01CE010196D9
S1130600BFDF69817A81072E000C880B990BA6D570
S113061020910002309101024091020250910302A4
S11306207DD6F8016083718382839383C090000236
S1130630D0900102E0900202F09003026B817C8171
S1130640072E000C880B990B89D5A701960166D655
S1130650F80164837583868397838D819E81BC01B1
S1130660990F880B990B7AD59B01AC01C701B60190
S113067055D6F801608771878287938726960FB6CF
S1130680F894DEBF0FBECDBFDF91CF911F910F91C4
S1130690FF90EF90DF90CF9008952F923F924F926A
S11306A05F926F927F928F929F92AF92BF92CF92FE
S11306B0DF92EF92FF920F931F93CF93DF93CDB707
S11306C0DEB7A0970FB6F894DEBF0FBECDBF8C0186
S11306D08D7F019709F05CC161E780E033DECE01D4
S11306E001964EDF69817A81CB80DC80ED80FE80CB
S11306F091E028ECC216D1040CF090E081E0683C53
S113070071050CF080E0892B41F481E098ECE91646
S1130710F1040CF080E0882309F1AA24A394B12CFD
S1130720CE0101962DDF69817A81CB80DC80ED805A
S1130730FE809A2DA8ECCA16D1040CF09B2D8A2DAC
S1130740683C71050CF08B2D892B51F78A2DB8EC80
S1130750EB16F1040CF08B2D8111E2CF40900002D6
S11307605090010260900202709003020F2EF4E098
S1130770AF2EF2E0BF2EF02D072E000C880B990B44
S1130780EDD4A3019201CAD59B01AC0160E070E0F5
S113079081E994E448D4F50160837183828393836F
S11307A0B601DD0C880B990BD9D49B01AC01C301B4
S11307B0B201B4D59B01AC0160E070E081E994E43E
S11307C032D4D50114966D937D938D939C93179792
S11307D0B701FF0C880B990BC1D49B01AC01C30179
S11307E0B2019CD59B01AC0160E070E087E894E421
S11307F01AD4F501608771878287938762E780E066
S1130800A1DDCE010196BCDE69817A81CB80DC80DA
S1130810ED80FE8091E0F9E3CF16FFEFDF060CF4E4
S113082090E081E069332FEF72070CF480E0892BAC
S113083049F481E099E3E9169FEFF9060CF480E0AE
S1130840882321F1AA24A394B12CCE01019698DE29
S113085069817A81CB80DC80ED80FE809A2DA9E3CA
S1130860CA16AFEFDA060CF49B2D8A2D6933BFEF5D
S11308707B070CF48B2D892B41F78A2DE9E3EE16C7
S1130880EFEFFE060CF48B2D8111DFCF40900002B8
S1130890509001026090020270900302072E000C37
S11308A0880B990B5BD4A301920138D502D6BC0105
S11308B00F2EF4E0AF2EF2E0BF2EF02D0F2EF8E84D
S11308C08F2EF4E09F2EF02DC4018ED5072E000C40
S11308D0880B990B43D4D50114962D913D914D91DC
S11308E05C91179710D320E030E040E05FE316D529
S11308F0F5016083718382839383B601DD0C880BD9
S1130900990B2CD49B01AC01C301B20107D5D1D5FD
S1130910BC01C40169D5072E000C880B990B1ED4A9
S1130920D50118962D913D914D915C911B97EBD279
S113093020E030E040E05FE3F1D4F50164837583A7
S113094086839783B701FF0C880B990B07D49B010F
S1130950AC01C301B201E2D4ACD5BC0188E394E09C
S113096043D5072E000C880B990BF8D3D5011C96A0
S11309702D913D914D915C911F97C5D220E030E0BF
S113098040E05FE3CBD4F50160877187828793876A
S113099068E780E0D7DC025011090230110508F045
S11309A01FC180E192E080DC8CE392E07DDC8FE388
S11309B092E07ADC8CE392E077DC1AE0CE010196D7
S11309C0DFDD1150D9F781EA92E06EDCFFEF23ED11
S11309D080E3F15020408040E1F700C0000089EB43
S11309E092E062DC8CE392E05FDC9FEFA3EDB0E386
S11309F09150A040B040E1F700C000008BEB92E0C2
S1130A0053DC8CE392E050DCEFEFF3ED20E3E150B4
S1130A10F0402040E1F700C000008DEB92E044DCA0
S1130A208CE392E041DC1D8E1E8E8AE78F8F95E465
S1130A3098A3198E1A8EAAE7AB8FB5E4BC8F1D8AD2
S1130A401E8AEAE7EF8BF5E4F88F198A1A8A2AE7F7
S1130A502B8B85EC8C8B1D861E869AE79F87A5ECD5
S1130A60A88B212C312CBAE7BB87E5ECEC870F2E41
S1130A70F4E04F2EF2E05F2EF02DCE01019680DDE2
S1130A808091000290910102A0910202B0910302B0
S1130A908F839887A987BA8769817A81072E000C8A
S1130AA0880B990B5BD32F81388549855A8536D4B9
S1130AB0D2012D913D914D915C9130D4E62ED72EEB
S1130AC0C82EB92E6B817C81072E000C880B990BE4
S1130AD045D39B01AC016F81788589859A851ED4A5
S1130AE0F201248135814681578118D4662EA72EC0
S1130AF0982E892E6D817E81072E000C880B990B10
S1130B002DD39B01AC016F81788589859A8506D4A4
S1130B10D20118962D913D914D915C911B97FED376
S1130B20762E072F182FF92E2E2D3D2D4C2D5B2DB3
S1130B30622D732D8B859C85E6D3181624F02E2CFC
S1130B403D2CCB86BC86262D3A2D492D582D6D85FE
S1130B507E858F859889D7D3181624F06D86AE8646
S1130B609F86888A272D302F412F5F2D69897A89A6
S1130B708B899C89C8D3181624F0798A0A8B1B8B1D
S1130B80FC8A2E2D3D2D4C2D5B2D6D897E898F8900
S1130B90988D45D2882324F0ED8ADE8ACF8AB88ED8
S1130BA0262D3A2D492D582D698D7A8D8B8D9C8D4E
S1130BB036D2882324F0698EAA8E9B8E8C8E272DA4
S1130BC0302F412F5F2D6D8D7E8D8F8D98A127D273
S1130BD088230CF452CF7D8E0E8F1F8FF8A24DCF39
S1130BE0A0960FB6F894DEBF0FBECDBFDF91CF91B4
S1130BF01F910F91FF90EF90DF90CF90BF90AF9037
S1130C009F908F907F906F905F904F903F902F9028
S1130C1008958F929F92AF92BF92CF92DF92EF92FC
S1130C20FF920F931F93CF93DF9300D000D0CDB7E3
S1130C30DEB78C01CE010196A3DC69817A81072E8F
S1130C40000C880B990B8AD220910002309101028A
S1130C50409102025091030261D30F2EF4E0CF2E93
S1130C60F2E0DF2EF02DF6012081318142815381A3
S1130C7055D30F2EF2EEEF2EF2E0FF2EF02DF701FA
S1130C8020813181428153813ED1F8016083718397
S1130C90828393838090000290900102A0900202CC
S1130CA0B09003026B817C81072E000C880B990B9A
S1130CB055D2A501940132D3F601248135814681B0
S1130CC057812CD3F70124813581468157811BD16B
S1130CD0F80164837583868397838D819E81BC012B
S1130CE0990F880B990B3AD29B01AC01C501B40151
S1130CF015D3F60120853185428553850FD3F7013D
S1130D002085318542855385FED0F801608771873F
S1130D108287938726960FB6F894DEBF0FBECDBFA9
S1130D20DF91CF911F910F91FF90EF90DF90CF90C3
S1130D30BF90AF909F908F900895BF92CF92DF9213
S1130D40EF92FF920F931F93CF93DF93CDB7DEB74C
S1130D502C970FB6F894DEBF0FBECDBFCE0101961F
S1130D6058DFCD80DE80EF80F88420E030E0A901F8
S1130D70C701B601C8D21816E4F4A7019601698127
S1130D807A818B819C814FD122D120E030E044E3F1
S1130D9053E4C4D22BED3FE049E450E444D19B0139
S1130DA0AC0160E070E084EB92E4ACD0A4D18B01A0
S1130DB002C000E010E020E030E0A901C701B60164
S1130DC02ED18823DCF4A701960169817A818B8175
S1130DD09C8129D1FCD020E030E044E353E49ED24E
S1130DE02BED3FE049E450E41ED19B01AC0160E0EF
S1130DF070E087E893E486D07ED18B0120E030E078
S1130E00A90169817A818B819C8109D1882374F439
S1130E10BB24B39420E030E0A901C701B601FFD0A0
S1130E208111B12CBB2011F004EB10E0B801110FBB
S1130E30880B990B93D12C960FB6F894DEBF0FBE96
S1130E40CDBFDF91CF911F910F91FF90EF90DF9075
S1130E50CF90BF90089580E895E202DA7BD949DB10
S1130E608AEF92E08DDB8FEB92E01EDACAEFD2E0DC
S1130E70888199813BDA85EC92E016DA8A819B813C
S1130E8035DA8BEC92E010DA8C819D812FDA8CE3D9
S1130E9092E00ADA83E090E000DC8EEE92E0A1DBDF
S1130EA04CDF29D170930103609300038FEB92E030
S1130EB0FBD9CEEED2E0688179818A819B811BD1F6
S1130EC0CB0114DA85EC92E0EFD96C817D818E81BF
S1130ED09F8111D1CB010ADA8BEC92E0E5D96885C8
S1130EE079858A859B8507D1CB0100DA81ED92E073
S1130EF0DBD98091000390910103F8D98CE392E04F
S1130F00D3D9CBCF5058BB27AA270ED0C2C1B3D157
S1130F1030F0B8D120F031F49F3F11F41EF483C1B6
S1130F200EF4E095E7FB79C1E92FC4D180F3BA1739
S1130F30620773078407950718F071F49EF5DCC106
S1130F400EF4E0950B2EBA2FA02D0B01B9019001E0
S1130F500C01CA01A0011124FF27591B99F0593F24
S1130F6050F4503E68F11A16F040A22F232F342F6C
S1130F704427585FF3CF469537952795A795F040BA
S1130F805395C9F77EF41F16BA0B620B730B840BCF
S1130F90BAF09150A1F0FF0FBB1F661F771F881F87
S1130FA0C2F70EC0BA0F621F731F841F48F48795DF
S1130FB077956795B795F7959E3F08F0B3CF9395CE
S1130FC0880F08F09927EE0F979587950895DF937A
S1130FD0DD27B92FBF7740E85FE3161617064807E9
S1130FE05B0710F4D92F93D19F938F937F936F93C3
S1130FF0F8D1E4EEF0E01AD14CD12F913F914F910A
S11310005F9198D1DD2349F09058A2EA2AED3FE0A0
S113101049EC5FE3D0785D2787DFDF913AC1D9D00F
S113102008F481E008950CD034C12CD140F023D1D0
S113103030F021F45F3F19F0F0C051115EC1F3C0EC
S113104039D198F39923C9F35523B1F3951B550B63
S1131050BB27AA2762177307840738F09F5F5F4F87
S1131060220F331F441FAA1FA9F333D00E2E3AF0C8
S1131070E0E830D091505040E695001CCAF729D0E2
S1131080FE2F27D0660F771F881FBB1F2617370731
S11310904807AB07B0E809F0BB0B802DBF01FF2761
S11310A093585F4F2AF09E3F510568F0B6C025C1A2
S11310B05F3FECF3983EDCF3869577956795B7959B
S11310C0F7959F5FC9F7880F911D9695879597F9B6
S11310D00895E1E0660F771F881FBB1F621773072F
S11310E08407BA0720F0621B730B840BBA0BEE1F44
S11310F088F7E095089504D06894B111FEC008956E
S1131100E1D088F09F5790F0B92F9927B751A0F0FC
S1131110D1F0660F771F881F991F1AF0BA95C9F787
S113112012C0B13081F0E8D0B1E00895E5C0672F76
S1131130782F8827B85F39F0B93FCCF38695779537
S11311406795B395D9F73EF4909580957095619520
S11311507F4F8F4F9F4F0895E89409C097FB3EF44B
S113116090958095709561957F4F8F4F9F4F9923F0
S1131170A9F0F92F96E9BB279395F695879577956E
S11311806795B795F111F8CFFAF4BB0F11F460FF2E
S11311901BC06F5F7F4F8F4F9F4F16C0882311F086
S11311A096E911C0772321F09EE8872F762F05C09A
S11311B0662371F096E8862F70E060E02AF09A9535
S11311C0660F771F881FDAF7880F9695879597F92A
S11311D00895990F0008550FAA0BE0E8FEEF1616C4
S11311E01706E807F907C0F012161306E407F50717
S11311F098F0621B730B840B950B39F40A2661F08B
S1131200232B242B252B21F408950A2609F4A1402D
S1131210A6958FEF811D811D089597F99F6780E83A
S113122070E060E008959FEF80EC0895DF93CF9322
S11312301F930F93FF92EF92DF927B018C016894CE
S113124005C0DA2EEF0176D0FE01E894A591259130
S1131250359145915591AEF3EF0166DEFE0197019C
S1131260A801DA9479F7DF90EF90FF900F911F9126
S1131270CF91DF91089500240A94161617061806D4
S11312800906089500240A94121613061406050686
S11312900895092E0394000C11F4882352F0BB0F17
S11312A040F4BF2B11F460FF04C06F5F7F4F8F4F7A
S11312B09F4F089557FD9058440F551F59F05F3FB5
S11312C071F04795880F97FB991F61F09F3F79F064
S11312D087950895121613061406551FF2CF4695E6
S11312E0F1DF08C0161617061806991FF1CF869568
S11312F07105610508940895E894BB27662777274C
S1131300CB0197F9089565DF08F48FEF08959B01E9
S1131310AC0160E070E080E89FE385CE0BD0B9CFEC
S1131320AADF28F0AFDF18F0952309F076CF7BCF42
S11313301124E3CFBFDFA0F3959FD1F3950F50E0C5
S1131340551F629FF001729FBB27F00DB11D639F73
S1131350AA27F00DB11DAA1F649F6627B00DA11D19
S1131360661F829F2227B00DA11D621F739FB00DBF
S1131370A11D621F839FA00D611D221F749F33272F
S1131380A00D611D231F849F600D211D822F762FC8
S11313906A2F11249F5750408AF0E1F088234AF0C5
S11313A0EE0FFF1FBB1F661F771F881F9150504011
S11313B0A9F79E3F510570F030CF9FCF5F3FECF30C
S11313C0983EDCF3869577956795B795F795E795FD
S11313D09F5FC1F7FE2B880F911D9695879597F90E
S11313E008959B01AC019ACF97FB072E16F4009445
S11313F006D077FD08D027D007FC05D03EF49095A1
S113140081959F4F0895709561957F4F0895052E9E
S113141097FB16F400940FD057FD05D028D007FC95
S113142002D046F408C050954095309521953F4F21
S11314304F4F5F4F089590958095709561957F4FBC
S11314408F4F9F4F0895AA1BBB1B51E107C0AA1FD2
S1131450BB1FA617B70710F0A61BB70B881F991F51
S11314605A95A9F780959095BC01CD010895A1E204
S11314701A2EAA1BBB1BFD010DC0AA1FBB1FEE1F0A
S1131480FF1FA217B307E407F50720F0A21BB30B55
S1131490E40BF50B661F771F881F991F1A9469F7D1
S11314A060957095809590959B01AC01BD01CF012D
S11314B0089597FF03C09195819591090895F89433
S10514C0FFCF58
S11314C20000803F0000803F0000803F0000803F1A
S11314D243616C6962726174696E67207468652025
S11314E24D61676E65746F6D65746572202E2E2E64
S11314F22E2E2E2E204F6666736574000A0D005040
S11315026C6561736520726F7461746520746865BB
S1131512206D61676E65746F6D657465722032202B
S11315226F7220332074696D657320696E20636F56
S11315326D706C6574652063697263756C65732084
S11315427769746820696E206F6E65206D696E75A7
S11315527465202E2E2E2E2E2E2E2E2E2E2E2E2E36
S1131562005374617274696E672044656275672002
S11315726461746120696E200033003200310020FE
S113158220783A20002020793A200020207A3A203C
S1131592002020202020202068656164696E673A5B
S10515A2200023
S9030000FC
