S00E00005052554542412E7372656357
S113000071C000008EC000008CC000008AC00000D7
S113001088C0000086C0000084C0000082C00000C8
S113002080C000007EC000007CC000007AC00000D8
S113003078C0000076C0000074C0000072C00000E8
S113004070C000006EC000006CC000006AC00000F8
S113005068C0000066C0000064C0000062C0000008
S113006060C000005EC000005CC000005AC0000018
S113007058C0000056C0000054C0000052C0000028
S113008050C000004EC000004CC000004AC0000038
S113009048C0000046C0000044C0000042C0000048
S11300A040C000003EC000003CC000003AC0000058
S11300B038C0000036C0000034C0000032C0000068
S11300C030C000002EC000002CC000002AC0000078
S11300D028C0000026C0000024C0000022C0000088
S11300E020C0000011241FBECFEFD1E2DEBFCDBF80
S11300F000E00CBF12E0A0E0B2E0E6EFF5E000E0C3
S11301000BBF02C007900D92A430B107D9F722E0CB
S1130110A4E0B2E001C01D92A631B207E1F7FAD122
S113012068C26ECF1092B90088E48093B800089535
S113013094EA9093BC00ECEBF0E090819923ECF707
S11301409091B900987F983011F09031A1F4809388
S1130150BB0084E88093BC00ECEBF0E08081882352
S1130160ECF79091B900987F983139F081E09034A0
S113017029F480E0089581E0089580E00895CF9304
S1130180DF93ECEBF0E024EAA9EBB0E0CBEBD0E0BA
S113019034E844E9208390819923ECF79C91987F7B
S11301A0983011F09031B1F788833083908199238E
S11301B0ECF79C91987F903211F0983529F44083A4
S11301C0908194FDFDCFE6CFDF91CF91089584E92E
S11301D08093BC00ECEBF0E0808184FDFDCF0895BA
S11301E08093BB0084E88093BC00ECEBF0E080815A
S11301F08823ECF79091B900987F81E0983209F454
S113020080E0089584EC8093BC00ECEBF0E0808106
S11302108823ECF78091BB00089584E88093BC00A8
S1130220ECEBF0E080818823ECF78091BB0008952B
S11302309C0140E050E060E074E284EF90E09BD1E8
S1130240DA01C901689412F8B595A7959795879531
S11302501694D1F79C01215031093093C5002093A5
S1130260C40082E08093C00086E08093C20088E1ED
S11302708093C1000895CF93DF93D82FC62F8CE3CA
S113028057DF8D2FADDF8C2FABDFA1DFDF91CF9157
S11302900895CF92DF92EF92FF926B017C012EEAD8
S11302A037E441E65FE33FD181110EC088E491EE6B
S11302B0AAE3BFE38093000290930102A093020299
S11302C0B093030260E0A2C026E636E646EA5FE3A6
S11302D0C701B60128D181110EC08FE195E8ABE6C4
S11302E0BFE38093000290930102A0930202B093B3
S11302F0030261E08BC023E333E343EF5FE3C70111
S1130300B60111D181110EC086EF98E2ACE9BFE3CA
S11303108093000290930102A0930202B09303021F
S113032062E074C020E030E040E250E4C701B6016E
S1130330FAD081110EC08CE59FE8A2ECBFE3809354
S1130340000290930102A0930202B093030263E0BF
S11303505DC020E030E040E850E4C701B601E3D0DE
S113036081110EC08EEA97E4A1E1B0E4809300020B
S113037090930102A0930202B093030264E046C08A
S113038026E636E646E950E4C701B601CCD0811131
S11303900EC08AE097EDA3E2B0E48093000290934C
S11303A00102A0930202B093030265E02FC023E38D
S11303B033E343EB50E4C701B601B5D081110EC05D
S11303C085E89BEEA1E4B0E48093000290930102DF
S11303D0A0930202B093030266E018C02AE939E947
S11303E041E051E4C701B6019ED081110EC083E300
S11303F093E3ABE8B0E48093000290930102A093EE
S11304000202B093030267E001C060E06295660FE8
S1130410607E70E081E090E02EDFFF90EF90DF904F
S1130420CF90089560E770E080E090E024DF66E616
S113043076E686E990E42DDF60E070E082E090E00B
S11304401ACF0895CF92DF92EF92FF920F931F93EA
S1130450CF93DF936C01E62E8CE391DE83E0C0DE64
S1130460B6DE8DE365DEF12C81E0E81AF1081E1496
S11304701F0474F4C0E086010C0F111DC3DEF801E3
S11304808083CF5F2C2F30E02E153F05A4F301C0ED
S1130490C0E0C6018C0F911DEC01BFDE888397DE9E
S11304A0DF91CF911F910F91FF90EF90DF90CF904C
S11304B008950F931F93CF93DF9300D000D0CDB74F
S11304C0DEB78C0166E0CE010196BCDF898190E045
S11304D0982F88272A81822BF801918380838B812E
S11304E090E0982F88272C81822B938382832D81FF
S11304F030E0322F22278E81282B358324832696C1
S11305000FB6F894DEBF0FBECDBFDF91CF911F9120
S11305100F91089580E895E28BDE04DE83DF80E1AD
S113052092E0C7DFFCCF03D008F481E00895990F6F
S11305300008550FAA0BE0E8FEEF16161706E807A9
S1130540F907C0F012161306E407F50798F0621BCA
S1130550730B840B950B39F40A2661F0232B242B9F
S1130560252B21F408950A2609F4A140A6958FEFBE
S1130570811D811D0895052E97FB16F400940FD05C
S113058057FD05D014D007FC02D046F408C050959E
S11305904095309521953F4F4F4F5F4F089590956B
S11305A08095709561957F4F8F4F9F4F0895A1E27D
S11305B01A2EAA1BBB1BFD010DC0AA1FBB1FEE1FD9
S11305C0FF1FA217B307E407F50720F0A21BB30B24
S11305D0E40BF50B661F771F881F991F1A9469F7A0
S11305E060957095809590959B01AC01BD01CF01FC
S10905F00895F894FFCF0A
S10705F60000803F3E
S9030000FC
