S00E00005052554542412E7372656357
S113000088C00000A6C00000A4C00000A2C0000078
S1130010A0C000009EC000009CC000009AC0000068
S113002098C0000096C0000094C0000092C0000078
S113003090C000008EC000008CC000008AC0000088
S113004088C0000086C0000084C0000082C0000098
S113005080C000007EC000007CC000007AC00000A8
S113006078C0000076C0000074C0000072C00000B8
S113007070C000006EC000006CC000006AC00000C8
S113008068C0000066C0000064C0000062C00000D8
S113009060C000005EC000005CC000005AC00000E8
S11300A058C0000056C0000054C0000052C00000F8
S11300B050C000004EC000004CC000004AC0000008
S11300C048C0000046C0000044C0000042C0000018
S11300D040C000003EC000003CC000003AC0000028
S11300E038C00000084AD73B3BCE016E84BCBFFD3C
S11300F0C12F3D6C74319ABD56833DDA3D00C77FF4
S113010011BED9E4BB4C3E916BAAAABE000000808C
S11301103F0011241FBECFEFD1E2DEBFCDBF00E010
S11301200CBF12E0A0E0B2E0EAEEF5E100E00BBFA4
S113013002C007900D92AA3FB107D9F723E0AAEFB6
S1130140B2E001C01D92AA31B207E1F7D9D60C94EE
S1130150F30A56CF1092B90088E48093B80008954A
S113016094EA9093BC00ECEBF0E090819923ECF7D7
S11301709091B900987F983011F09031A1F4809358
S1130180BB0084E88093BC00ECEBF0E08081882322
S1130190ECF79091B900987F983139F081E0903470
S11301A029F480E0089581E0089580E00895CF93D4
S11301B0DF93ECEBF0E024EAA9EBB0E0CBEBD0E08A
S11301C034E844E9208390819923ECF79C91987F4B
S11301D0983011F09031B1F788833083908199235E
S11301E0ECF79C91987F903211F0983529F4408374
S11301F0908194FDFDCFE6CFDF91CF91089584E9FE
S11302008093BC00ECEBF0E0808184FDFDCF089589
S11302108093BB0084E88093BC00ECEBF0E0808129
S11302208823ECF79091B900987F81E0983209F423
S113023080E0089584EC8093BC00ECEBF0E08081D6
S11302408823ECF78091BB00089584E88093BC0078
S1130250ECEBF0E080818823ECF78091BB000895FB
S11302608130E1F030F0823071F1833009F440C024
S11302700895E0ECF0E08081826080831092C500F4
S11302808FEC8093C400E1ECF0E080818869808386
S1130290E2ECF0E08081866080830895E8ECF0E091
S11302A08081826080831092CD008FEC8093CC009B
S11302B0E9ECF0E0808188698083EAECF0E08081F9
S11302C0866080830895E0EDF0E080818260808321
S11302D01092D5008FEC8093D400E1EDF0E08081A2
S11302E088698083E2EDF0E08081866080830895F0
S11302F0E0E3F1E0808182608083109235018FEC2D
S113030080933401E1E3F1E0808188698083E2E352
S1130310F1E08081866080830895813071F028F057
S1130320823099F08330C9F00895E0ECF0E08081E8
S113033085FFFDCF6093C6000895E8ECF0E080816E
S113034085FFFDCF6093CE000895E0EDF0E080815D
S113035085FFFDCF6093D6000895E0E3F1E080814E
S113036085FFFDCF6093360108951F93CF93DF93EC
S1130370EB012196FB016081662331F0182F812F58
S1130380CCDF69916111FBCFDF91CF911F9108956B
S11303901F93CF93DF93182FEB012196FB0160810C
S11303A0662329F0812FB9DF69916111FBCF6DE0DC
S11303B0812FB3DF6AE0812FB0DFDF91CF911F91EE
S11303C00895CF93DF93D82FC62F8CE3C9DE8D2FEA
S11303D01FDF8C2F1DDF13DFDF91CF910895CF92A4
S11303E0DF92EF92FF926B017C012EEA37E441E643
S11303F05FE3BAD681110EC088E491EEAAE3BFE3AD
S11304008093000290930102A0930202B09303022E
S113041060E0A2C026E636E646EA5FE3C701B6011D
S1130420A3D681110EC08FE195E8ABE6BFE38093BC
S1130430000290930102A0930202B093030261E0D0
S11304408BC023E333E343EF5FE3C701B6018CD6EC
S113045081110EC086EF98E2ACE9BFE380930002FD
S113046090930102A0930202B093030262E074C06D
S113047020E030E040E250E4C701B60175D68111B6
S11304800EC08CE59FE8A2ECBFE38093000290933A
S11304900102A0930202B093030263E05DC020E076
S11304A030E040E850E4C701B6015ED681110EC0C9
S11304B08EEA97E4A1E1B0E48093000290930102F4
S11304C0A0930202B093030264E046C026E636E637
S11304D046E950E4C701B60147D681110EC08AE04F
S11304E097EDA3E2B0E48093000290930102A093FD
S11304F00202B093030265E02FC023E333E343EB2E
S113050050E4C701B60130D681110EC085E89BEED8
S1130510A1E4B0E48093000290930102A09302024C
S1130520B093030266E018C02AE939E941E051E4D6
S1130530C701B60119D681110EC083E393E3ABE87A
S1130540B0E48093000290930102A0930202B0935E
S1130550030267E001C060E06295660F607E70E0B0
S113056081E090E02EDFFF90EF90DF90CF90089530
S113057060E770E080E090E024DF66E676E686E9F6
S113058090E42DDF60E070E082E090E01ACF0895FF
S1130590CF92DF92EF92FF920F931F93CF93DF934B
S11305A06C01E62E8CE303DE83E032DE28DE8DE38D
S11305B0D7DDF12C81E0E81AF1081E141F0474F44D
S11305C0C0E086010C0F111D35DEF8018083CF5F7A
S11305D02C2F30E02E153F05A4F301C0C0E0C60166
S11305E08C0F911DEC0131DE888309DEDF91CF9100
S11305F01F910F91FF90EF90DF90CF9008950F938C
S11306001F93CF93DF9300D000D0CDB7DEB78C011A
S113061066E0CE010196BCDF898190E0982F88279F
S11306202A81822BF801918380838B8190E0982F1B
S113063088272C81822B938382832D8130E0322F73
S113064022278E81282B3583248326960FB6F8948F
S1130650DEBF0FBECDBFDF91CF911F910F910895E3
S11306602F923F924F925F926F927F928F929F92BE
S1130670AF92BF92CF92DF92EF92FF920F931F93AC
S1130680CF93DF93CDB7DEB7AA970FB6F894DEBF4A
S11306900FBECDBF7C018D7F019709F06BC161E76F
S11306A080E08FDECE010196AADF49815A81CB809A
S11306B0DC80AD80BE8091E028ECC216D1040CF041
S11306C090E081E0483C51050CF080E0892B41F436
S11306D081E098ECA916B1040CF080E0882301F1C4
S11306E011E000E0CE0101968ADF49815A81CB8076
S11306F0DC80AD80BE80912FE8ECCE16D1040CF0E6
S1130700902F812F483C51050CF0802F892B51F7F5
S1130710812FF8ECAF16B1040CF0802F8111E2CFD9
S11307204090000250900102609002027090030217
S113073004E012E0BA01550F880B990BB4D5A3015C
S1130740920191D69B01AC0160E070E081E994E4F0
S11307500FD5F8016083718382839383B601DD0C26
S1130760880B990BA0D59B01AC01C301B2017BD6C8
S11307709B01AC0160E070E081E994E4F9D4F801F4
S11307806483758386839783B501BB0C880B990BAF
S11307908AD59B01AC01C301B20165D69B01AC01B2
S11307A060E070E087E894E4E3D4F801608771873F
S11307B08287938762E780E004DECE0101961FDF23
S11307C069817A81AB80BC80CD80DE8091E0F9E3E1
S11307D0AF16FFEFBF060CF490E081E069332FEF12
S11307E072070CF480E0892B49F481E099E3C9167F
S11307F09FEFD9060CF480E0882319F111E000E0A2
S1130800CE010196FCDE69817A81AB80BC80CD800B
S1130810DE80912FE9E3AE16EFEFBE060CF4902FC5
S1130820812F6933FFEF7F070CF4802F892B41F769
S1130830812F29E3C2162FEFD2060CF4802F8111E9
S1130840DFCF40900002509001026090020270904D
S11308500302072E000C880B990B25D5A3019201E6
S113086002D6EED49B01772324F422273327261BB8
S1130870370B88E894E0B9015CD6072E000C880B8E
S1130880990B11D5209108023091090240910A0276
S113089050910B02DDD320E030E040E05FE3E3D58C
S11308A060930402709305028093060290930702FA
S11308B0B501BB0C880B990BF6D49B01AC01C301A9
S11308C0B201D1D5BDD49B01772324F42227332749
S11308D0261B370B88E894E0B9012BD6072E000CB1
S11308E0880B990BE0D420910C0230910D024091B9
S11308F00E0250910F02ACD320E030E040E05FE301
S1130900B2D5609308027093090280930A0290930F
S11309100B02B601DD0C880B990BC5D49B01AC010D
S1130920C301B201A0D58CD49B01772324F42227E0
S11309303327261B370B88E394E0B901FAD5072E39
S1130940000C880B990BAFD4209110023091110246
S113095040911202509113027BD320E030E040E03A
S11309605FE381D560930C0270930D0280930E02B5
S113097090930F0268E780E024DD82E0E81AF10832
S113098092E0E916F10408F080C160E172E080E0D1
S1130990FFDC6CE372E080E0FBDC1AE0CE01019640
S11309A02EDE1150D9F76EE972E080E0F1DCEFEF52
S11309B0F3ED20E3E150F0402040E1F700C00000F7
S11309C066EB72E080E0E4DC8FEF93EDE0E38150CE
S11309D09040E040E1F700C0000068EB72E080E086
S11309E0D7DCFFEF23ED80E3F15020408040E1F7B6
S11309F000C000006AEB72E080E0CADC412C512C9C
S1130A001AA619A61DA21EA29AE79FA3E5E4E8A7C9
S1130A1019A21AA2FAE7FBA325E42CA31D8E1E8EAD
S1130A208AE78F8F95E498A3198E1A8EEAE7EB8FE5
S1130A30F5ECFC8F1D8A1E8A2AE72F8B85EC888FA4
S1130A40198A1A8A9AE79B8BE5ECEC8B0F2EF4E05B
S1130A502F2EF2E03F2EF02DCE010196D0DD6090D6
S1130A60000270900102809002029090030269815A
S1130A707A81072E000C880B990B15D4A4019301DD
S1130A80F2D4F1012081318142815381ECD4F62EDC
S1130A90072F182FE92E6B817C81072E000C880B01
S1130AA0990B01D49B01AC01C401B301DCD4F10165
S1130AB02481358146815781D6D4D62EC72EB82EAF
S1130AC0A92E6D817E81072E000C880B990BEBD328
S1130AD09B01AC01C401B301C6D4F1012085318569
S1130AE042855385C0D4862E772E682E992E298967
S1130AF03A894B895C896F2D702F812F9E2D34D3B9
S1130B00882324F0F98A0A8B1B8BEC8A2D893E8971
S1130B104F89588D6D2D7C2D8B2D9A2D25D38823AF
S1130B2024F0DD8ACE8ABF8AA88E298D3A8D4B8D1A
S1130B305C8D682D772D862D992D16D3882324F06E
S1130B40898E7A8E6B8E9C8E2D8D3E8D4F8D58A105
S1130B506F2D702F812F9E2D7BD4181624F0FD8EBF
S1130B600E8F1F8FE8A229A13AA14BA15CA16D2D84
S1130B707C2D8B2D9A2D6CD4181624F0D9A2CAA2E0
S1130B80BBA2ACA22DA13EA14FA158A5682D772DE3
S1130B90862D992D5DD4181624F08DA27EA26FA205
S1130BA098A689A59AA548165906C1F46CEB72E07B
S1130BB080E0DBDB4AE0BE01695F7F4FC201E0D425
S1130BC0BC0180E0E5DBF201EC59FF4FFAA7E9A78D
S1130BD08FE39CE90197F1F700C000009FEF491AE9
S1130BE0590AE9EA4E16E1E65E0609F035CF0AEF46
S1130BF012E02D8D3E8D4F8D58A169897A898B899C
S1130C009C8925D220E030E040E05FE32CD42989A0
S1130C103A894B895C891BD2F80160837183828392
S1130C20938329A13AA14BA15CA16D897E898F8907
S1130C30988D0DD220E030E040E05FE314D42D899C
S1130C403E894F89588D03D2F80164837583868366
S1130C5097832DA13EA14FA158A5698D7A8D8B8DC7
S1130C609C8DF5D120E030E040E05FE3FCD3298D9A
S1130C703A8D4B8D5C8DEBD1F8016087718782874B
S1130C80938761EC72E080E083DBAA960FB6F89458
S1130C90DEBF0FBECDBFDF91CF911F910F91FF90AB
S1130CA0EF90DF90CF90BF90AF909F908F907F9008
S1130CB06F905F904F903F902F9008958F929F92E6
S1130CC0AF92BF92CF92DF92EF92FF920F931F9356
S1130CD0CF93DF9300D000D0CDB7DEB78C01CE0127
S1130CE001968DDC69817A81072E000C880B990BA3
S1130CF0DAD2209100023091010240910202509117
S1130D000302B1D30F2EF4E0CF2EF2E0DF2EF02D4C
S1130D10F6012081318142815381A5D30F2EFAEF50
S1130D20EF2EF2E0FF2EF02DF70120813181428178
S1130D3053818ED1F8016083718382839383809081
S1130D40000290900102A0900202B09003026B8115
S1130D507C81072E000C880B990BA5D2A501940168
S1130D6082D3F60124813581468157817CD3F701F2
S1130D7024813581468157816BD1F8016483758361
S1130D80868397838D819E81BC01990F880B990B73
S1130D908AD29B01AC01C501B40165D3F60120855B
S1130DA03185428553855FD3F7012085318542859E
S1130DB053854ED1F8016087718782879387269681
S1130DC00FB6F894DEBF0FBECDBFDF91CF911F9158
S1130DD00F91FF90EF90DF90CF90BF90AF909F90D6
S1130DE08F900895BF92CF92DF92EF92FF920F936C
S1130DF01F93CF93DF93CDB7DEB72C970FB6F8943C
S1130E00DEBF0FBECDBFCE01019658DFCD80DE80A0
S1130E10EF80F88420E030E0A901C701B60118D3BF
S1130E201816E4F4A701960169817A818B819C816B
S1130E309FD172D120E030E044E353E414D32BED8E
S1130E403FE049E450E494D19B01AC0160E070E0E0
S1130E5084EB92E4FCD0F4D18B0102C000E010E0FA
S1130E6020E030E0A901C701B6017ED18823DCF47B
S1130E70A701960169817A818B819C8179D14CD1BA
S1130E8020E030E044E353E4EED22BED3FE049E4CC
S1130E9050E46ED19B01AC0160E070E087E893E41C
S1130EA0D6D0CED18B0120E030E0A90169817A81CE
S1130EB08B819C8159D1882374F4BB24B39420E0A2
S1130EC030E0A901C701B6014FD18111B12CBB207B
S1130ED011F004EB10E0B801110F880B990BE3D16A
S1130EE02C960FB6F894DEBF0FBECDBFDF91CF9125
S1130EF01F910F91FF90EF90DF90CF90BF900895D6
S1130F00CF93DF93CDB7DEB7A8970FB6F894DEBFC3
S1130F100FBECDBF80E0A4D91DD92ADB82E193E0C6
S1130F206EDB02E113E04AE0BE016F5F7F4FF80120
S1130F308081918125D34AE0BE01655F7F4FF8012E
S1130F40828193811DD34AE0BE016B5E7F4FF8011D
S1130F508481958115D363EE72E080E006DABE01E8
S1130F606F5F7F4F80E001DA69EE72E080E0FDD9C7
S1130F70BE01655F7F4F80E0F8D96FEE72E080E0DC
S1130F80F4D9BE016B5E7F4F80E002DA83E090E02B
S1130F9067DB86E093E092DE06E013E0F80160810F
S1130FA07181828193814CD1DC01CB014AE0BE0185
S1130FB06F5F7F4FE5D2F8016481758186819781E7
S1130FC03FD1DC01CB014AE0BE01655F7F4FD8D23F
S1130FD0F801608571858285938532D1DC01CB016E
S1130FE04AE0BE016B5E7F4FCBD263EE72E080E0DD
S1130FF0BCD9BE016F5F7F4F80E0B7D969EE72E064
S113100080E0B3D9BE01655F7F4F80E0AED96FEE5B
S113101072E080E0AAD9BE016B5E7F4F80E0A5D963
S1131020E1DE0ED1709319036093180365EF72E04B
S113103080E09BD94AE0BE01615E7F4F8091180336
S1131040909119039DD2BC0180E0A2D9A2CF50583F
S1131050BB27AA270ED0C2C1B3D130F0B8D120F03B
S113106031F49F3F11F41EF483C10EF4E095E7FBC5
S113107079C1E92FC4D180F3BA17620773078407D3
S1131080950718F071F49EF5DCC10EF4E0950B2E73
S1131090BA2FA02D0B01B90190010C01CA01A001C6
S11310A01124FF27591B99F0593F50F4503E68F121
S11310B01A16F040A22F232F342F4427585FF3CF62
S11310C0469537952795A795F0405395C9F77EF433
S11310D01F16BA0B620B730B840BBAF09150A1F07C
S11310E0FF0FBB1F661F771F881FC2F70EC0BA0F02
S11310F0621F731F841F48F4879577956795B7958A
S1131100F7959E3F08F0B3CF9395880F08F0992781
S1131110EE0F979587950895DF93DD27B92FBF7755
S113112040E85FE31616170648075B0710F4D92F4B
S113113093D19F938F937F936F93F8D1E4EEF0E074
S11311401AD14CD12F913F914F915F9198D1DD23CA
S113115049F09058A2EA2AED3FE049EC5FE3D078E9
S11311605D2787DFDF913AC1D9D008F481E0089583
S11311700CD034C12CD140F023D130F021F45F3FA6
S113118019F0F0C051115EC1F3C039D198F399231D
S1131190C9F35523B1F3951B550BBB27AA27621737
S11311A07307840738F09F5F5F4F220F331F441F7C
S11311B0AA1FA9F333D00E2E3AF0E0E830D09150B4
S11311C05040E695001CCAF729D0FE2F27D0660FA1
S11311D0771F881FBB1F261737074807AB07B0E8E0
S11311E009F0BB0B802DBF01FF2793585F4F2AF0F6
S11311F09E3F510568F0B6C025C15F3FECF3983EB1
S1131200DCF3869577956795B795F7959F5FC9F752
S1131210880F911D9695879597F90895E1E0660FDB
S1131220771F881FBB1F621773078407BA0720F054
S1131230621B730B840BBA0BEE1F88F7E0950895BD
S113124004D06894B111FEC00895E1D088F09F578E
S113125090F0B92F9927B751A0F0D1F0660F771FFE
S1131260881F991F1AF0BA95C9F712C0B13081F0DE
S1131270E8D0B1E00895E5C0672F782F8827B85FDC
S113128039F0B93FCCF3869577956795B395D9F73F
S11312903EF490958095709561957F4F8F4F9F4F49
S11312A00895E89409C097FB3EF490958095709555
S11312B061957F4F8F4F9F4F9923A9F0F92F96E99E
S11312C0BB279395F695879577956795B795F11113
S11312D0F8CFFAF4BB0F11F460FF1BC06F5F7F4FB0
S11312E08F4F9F4F16C0882311F096E911C07723C2
S11312F021F09EE8872F762F05C0662371F096E8CB
S1131300862F70E060E02AF09A95660F771F881F99
S1131310DAF7880F9695879597F90895990F00083D
S1131320550FAA0BE0E8FEEF16161706E807F907B3
S1131330C0F012161306E407F50798F0621B730B4E
S1131340840B950B39F40A2661F0232B242B252BCF
S113135021F408950A2609F4A140A6958FEF811D72
S1131360811D089597F99F6780E870E060E0089513
S11313709FEF80EC0895DF93CF931F930F93FF9219
S1131380EF92DF927B018C01689405C0DA2EEF01A5
S113139076D0FE01E894A59125913591459155911A
S11313A0AEF3EF0166DEFE019701A801DA9479F746
S11313B0DF90EF90FF900F911F91CF91DF910895EF
S11313C000240A9416161706180609060895002420
S11313D00A9412161306140605060895092E03949A
S11313E0000C11F4882352F0BB0F40F4BF2B11F40E
S11313F060FF04C06F5F7F4F8F4F9F4F089557FD6D
S11314009058440F551F59F05F3F71F04795880F6E
S113141097FB991F61F09F3F79F087950895121605
S113142013061406551FF2CF4695F1DF08C01616B1
S113143017061806991FF1CF869571056105089462
S11314400895E894BB2766277727CB0197F9089579
S113145065DF08F48FEF08959B01AC0160E070E054
S113146080E89FE385CE0BD0B9CFAADF28F0AFDFA9
S113147018F0952309F076CF7BCF1124E3CFBFDF9B
S1131480A0F3959FD1F3950F50E0551F629FF00193
S1131490729FBB27F00DB11D639FAA27F00DB11DEC
S11314A0AA1F649F6627B00DA11D661F829F222775
S11314B0B00DA11D621F739FB00DA11D621F839FFC
S11314C0A00D611D221F749F3327A00D611D231FD2
S11314D0849F600D211D822F762F6A2F11249F5720
S11314E050408AF0E1F088234AF0EE0FFF1FBB1F43
S11314F0661F771F881F91505040A9F79E3F5105E2
S113150070F030CF9FCF5F3FECF3983EDCF38695CD
S113151077956795B795F795E7959F5FC1F7FE2B8C
S1131520880F911D9695879597F908959B01AC01B5
S11315309ACF97FB072E16F4009406D077FD08D0B7
S11315400BD007FC05D03EF4909581959F4F0895EC
S1131550709561957F4F0895AA1BBB1B51E107C08D
S1131560AA1FBB1FA617B70710F0A61BB70B881F2F
S1131570991F5A95A9F780959095BC01CD010895BE
S1131580BB274A3031F4992322F4BDE2909581952A
S11315909F4F01C0BB27FB015527AA27880F991F1E
S11315A0AA1FA41710F0A41B83955051B9F7A05D8E
S11315B0AA3308F0A95DA193009779F7B111B1930B
S11315C01192CB0100C0DC01FC01672F71917723DC
S11315D0E1F7329704C07C916D9370836291AE17EA
S10D15E0BF07C8F30895F894FFCF85
S11315EA0000803F0000803F0000803F0000803FF1
S11315FA43616C6962726174696E672074686520FC
S113160A4D61676E65746F6D65746572202E2E2E3A
S113161A2E2E2E2E204F666673657400506C6561FB
S113162A736520726F7461746520746865206D61D6
S113163A676E65746F6D657465722032206F7220EF
S113164A332074696D657320696E20636F6D706CE5
S113165A6574652063697263756C65732077697450
S113166A6820696E206F6E65206D696E75746520D9
S113167A2E2E2E2E2E2E2E2E2E2E2E2E2E0053743F
S113168A617274696E672044656275672064617467
S113169A6120696E200033003200310074733A20ED
S11316AA00456E64204465627567202D2D20284FFD
S11316BA66667365742043616C6962726174696FEA
S11316CA6E29002020783A20002020793A20002030
S10D16DA207A3A200020202020008E
S9030000FC
