S00E00005052554542412E7372656357
S113000088C00000A5C00000A3C00000A1C000007B
S11300109FC000009DC000009BC0000099C000006C
S113002097C0000095C0000093C0000091C000007C
S11300308FC000008DC000008BC0000089C000008C
S113004087C0000085C0000083C0000081C000009C
S11300507FC000007DC000007BC0000079C00000AC
S113006077C0000075C0000073C0000071C00000BC
S11300706FC000006DC000006BC0000069C00000CC
S113008067C0000065C0000063C0000061C00000DC
S11300905FC000005DC000005BC0000059C00000EC
S11300A057C0000055C0000053C0000051C00000FC
S11300B04FC000004DC000004BC0000049C000000C
S11300C047C0000045C0000043C0000041C000001C
S11300D03FC000003DC000003BC0000039C000002C
S11300E037C00000084AD73B3BCE016E84BCBFFD3D
S11300F0C12F3D6C74319ABD56833DDA3D00C77FF4
S113010011BED9E4BB4C3E916BAAAABE000000808C
S11301103F0011241FBECFEFD1E2DEBFCDBF00E010
S11301200CBF12E0A0E0B2E0EAECFDE000E00BBF9F
S113013002C007900D92AA3FB107D9F723E0AAEFB6
S1130140B2E001C01D92A231B207E1F7E4D23BC68E
S113015057CF1092B90088E48093B800089594EAC8
S11301609093BC00ECEBF0E090819923ECF7909134
S1130170B900987F983011F09031A1F48093BB00BE
S113018084E88093BC00ECEBF0E080818823ECF7FA
S11301909091B900987F983139F081E0903429F436
S11301A080E0089581E0089580E00895CF93DF937F
S11301B0ECEBF0E024EAA9EBB0E0CBEBD0E034E8E0
S11301C044E9208390819923ECF79C91987F98309F
S11301D011F09031B1F78883308390819923ECF743
S11301E09C91987F903211F0983529F44083908146
S11301F094FDFDCFE6CFDF91CF91089584E98093FC
S1130200BC00ECEBF0E0808184FDFDCF0895809389
S1130210BB0084E88093BC00ECEBF0E08081882391
S1130220ECF79091B900987F81E0983209F480E06E
S1130230089584EC8093BC00ECEBF0E0808188238B
S1130240ECF78091BB00089584E88093BC00ECEB4C
S1130250F0E080818823ECF78091BB000895813021
S1130260E1F030F0823071F1833009F440C0089538
S1130270E0ECF0E08081826080831092C5008FEC16
S11302808093C400E1ECF0E0808188698083E2EC33
S1130290F0E08081866080830895E8ECF0E080815E
S11302A0826080831092CD008FEC8093CC00E9ECC7
S11302B0F0E0808188698083EAECF0E080818660E8
S11302C080830895E0EDF0E0808182608083109265
S11302D0D5008FEC8093D400E1EDF0E08081886953
S11302E08083E2EDF0E08081866080830895E0E31E
S11302F0F1E0808182608083109235018FEC8093DD
S11303003401E1E3F1E0808188698083E2E3F1E094
S11303108081866080830895813071F028F0823076
S113032099F08330C9F00895E0ECF0E0808185FF16
S1130330FDCF6093C6000895E8ECF0E0808185FF6E
S1130340FDCF6093CE000895E0EDF0E0808185FF5D
S1130350FDCF6093D6000895E0E3F1E0808185FF4E
S1130360FDCF6093360108951F93CF93DF93EB0184
S11303702196FB016081662331F0182F812FCCDF99
S113038069916111FBCFDF91CF911F9108951F9364
S1130390CF93DF93182FEB012196FB016081662335
S11303A029F0812FB9DF69916111FBCF6DE0812FB5
S11303B0B3DF6AE0812FB0DFDF91CF911F91089501
S11303C0CF93DF93D82FC62F8CE3C9DE8D2F1FDF89
S11303D08C2F1DDF13DFDF91CF910895CF92DF9231
S11303E0EF92FF926B017C012EEA37E441E65FE372
S11303F0D6D281110EC088E491EEAAE3BFE38093C4
S1130400000290930102A0930202B093030260E001
S1130410A2C026E636E646EA5FE3C701B601BFD2CC
S113042081110EC08FE195E8ABE6BFE38093000233
S113043090930102A0930202B093030261E08BC087
S113044023E333E343EF5FE3C701B601A8D281118D
S11304500EC086EF98E2ACE9BFE38093000290936C
S11304600102A0930202B093030262E074C020E090
S113047030E040E250E4C701B60191D281110EC0D0
S11304808CE59FE8A2ECBFE3809300029093010205
S1130490A0930202B093030263E05DC020E030E069
S11304A040E850E4C701B6017AD281110EC08EEA49
S11304B097E4A1E1B0E48093000290930102A09339
S11304C00202B093030264E046C026E636E646E93B
S11304D050E4C701B60163D281110EC08AE097EDE2
S11304E0A3E2B0E48093000290930102A09302027D
S11304F0B093030265E02FC023E333E343EB50E4FE
S1130500C701B6014CD281110EC085E89BEEA1E46F
S1130510B0E48093000290930102A0930202B0938E
S1130520030266E018C02AE939E941E051E4C70151
S1130530B60135D281110EC083E393E3ABE8B0E496
S11305408093000290930102A0930202B0930302ED
S113055067E001C060E06295660F607E70E081E054
S113056090E02EDFFF90EF90DF90CF90089560E74A
S113057070E080E090E024DF66E676E686EA9FE3BA
S11305802DDF60E070E082E090E01ACF0895CF9212
S1130590DF92EF92FF920F931F93CF93DF936C013F
S11305A0E62E8CE303DE83E032DE28DE8DE3D7DD46
S11305B0F12C81E0E81AF1081E141F0474F4C0E061
S11305C086010C0F111D35DEF8018083CF5F2C2FBF
S11305D030E02E153F05A4F301C0C0E0C6018C0F26
S11305E0911DEC0131DE888309DEDF91CF911F91EB
S11305F00F91FF90EF90DF90CF9008950F931F938A
S1130600CF93DF9300D000D0CDB7DEB78C0166E086
S1130610CE010196BCDF898190E0982F88272A813A
S1130620822BF801918380838B8190E0982F882717
S11306302C81822B958384832D8130E0322F2227D5
S11306408E81282B3383228326960FB6F894DEBF3F
S11306500FBECDBFDF91CF911F910F910895CF921F
S1130660DF92EF92FF920F931F93CF93DF9300D00B
S113067000D0CDB7DEB78C01CE010196BFDF698112
S11306807A81072E000C880B990B28D22091000246
S1130690309101024091020250910302FBD2F80111
S11306A06083718382839383C0900002D09001029F
S11306B0E0900202F09003026B817C81072E000C13
S11306C0880B990B0BD2A7019601E4D2F80164833D
S11306D07583868397838D819E81BC01990F880BD6
S11306E0990BFCD19B01AC01C701B601D3D2F8012F
S11306F0608771878287938726960FB6F894DEBF4A
S11307000FBECDBFDF91CF911F910F91FF90EF905E
S1130710DF90CF900895CF93DF93CDB7DEB7A8973E
S11307200FB6F894DEBF0FBECDBF80E098DD11DDBB
S11307301EDF8AEF92E093DF0AEF12E0F801608196
S113074071818281938197D1DC01CB014AE0BE01A2
S11307506F5F7F4F05D3F80164817581868197812E
S11307608AD1DC01CB014AE0BE01655F7F4FF8D23C
S1130770F80160857185828593857DD1DC01CB018B
S11307804AE0BE016B5E7F4FEBD267ED72E080E022
S1130790EBDDBE016F5F7F4F80E0E6DD6BED72E065
S11307A080E0E2DDBE01655F7F4F80E0DDDD63EE6A
S11307B072E080E0D9DDBE016B5E7F4F80E0D4DD66
S11307C0F801208131814281538164817581868160
S11307D0978192D06B017C016BEE72E080E0C4DD06
S11307E02BED3FE049E450E4C701B60112D020EEFE
S11307F03EE245E652E44ED23ED1DC01CB014AE072
S1130800BE01615E7F4FACD2BC0180E0C0DD91CF00
S11308105058BB27AA270ED0FCC1EDD130F0F2D13D
S113082020F031F49F3F11F41EF4BDC10EF4E095A5
S1130830E7FBB3C1E92FFED180F3BA176207730750
S11308408407950718F071F49EF516C20EF4E0952E
S11308500B2EBA2FA02D0B01B90190010C01CA0176
S1130860A0011124FF27591B99F0593F50F4503E21
S113087068F11A16F040A22F232F342F4427585F13
S1130880F3CF469537952795A795F0405395C9F72B
S11308907EF41F16BA0B620B730B840BBAF09150E3
S11308A0A1F0FF0FBB1F661F771F881FC2F70EC082
S11308B0BA0F621F731F841F48F487957795679555
S11308C0B795F7959E3F08F0B3CF9395880F08F03E
S11308D09927EE0F9795879508958DD158F080E864
S11308E091E009F49EEF8ED128F040E851E059F4EC
S11308F05EEF09C058C1C0C1E92FE0789BD168F30D
S1130900092E052AC1F3261737074807590738F077
S11309100E2E07F8E02569F0E025E0640AC0EF63D5
S113092007F8009407FADB01B9019D01DC01CA0153
S1130930AD01EF9347D06DD10AD05F91552331F0CB
S11309402BED3FE049E450FD49EC63CF0895DF937C
S1130950DD27B92FBF7740E85FE31616170648076F
S11309605B0710F4D92F8FD19F938F937F936F934D
S1130970F4D1E4EEF0E01AD14CD12F913F914F9194
S11309805F9194D1DD2349F09058A2EA2AED3FE02B
S113099049EC5FE3D0785D274DDFDF913AC1D9D0D0
S11309A008F481E008950CD034C12CD140F023D157
S11309B030F021F45F3F19F0F0C051115EC1F3C073
S11309C039D198F39923C9F35523B1F3951B550BEA
S11309D0BB27AA2762177307840738F09F5F5F4F0E
S11309E0220F331F441FAA1FA9F333D00E2E3AF04F
S11309F0E0E830D091505040E695001CCAF729D069
S1130A00FE2F27D0660F771F881FBB1F26173707B7
S1130A104807AB07B0E809F0BB0B802DBF01FF27E7
S1130A2093585F4F2AF09E3F510568F0B6C025C128
S1130A305F3FECF3983EDCF3869577956795B79521
S1130A40F7959F5FC9F7880F911D9695879597F93C
S1130A500895E1E0660F771F881FBB1F62177307B5
S1130A608407BA0720F0621B730B840BBA0BEE1FCA
S1130A7088F7E095089504D06894B111FEC00895F4
S1130A80E1D088F09F5790F0B92F9927B751A0F083
S1130A90D1F0660F771F881F991F1AF0BA95C9F70E
S1130AA012C0B13081F0E8D0B1E00895E5C0672FFD
S1130AB0782F8827B85F39F0B93FCCF386957795BE
S1130AC06795B395D9F73EF49095809570956195A7
S1130AD07F4F8F4F9F4F0895E89409C097FB3EF4D2
S1130AE090958095709561957F4F8F4F9F4F992377
S1130AF0A9F0F92F96E9BB279395F69587957795F5
S1130B006795B795F111F8CFFAF4BB0F11F460FFB4
S1130B101BC06F5F7F4F8F4F9F4F16C0882311F00C
S1130B2096E911C0772321F09EE8872F762F05C020
S1130B30662371F096E8862F70E060E02AF09A95BB
S1130B40660F771F881FDAF7880F9695879597F9B0
S1130B500895990F0008550FAA0BE0E8FEEF16164A
S1130B601706E807F907C0F012161306E407F5079D
S1130B7098F0621B730B840B950B39F40A2661F011
S1130B80232B242B252B21F408950A2609F4A140B4
S1130B90A6958FEF811D811D089597F99F6780E8C1
S1130BA070E060E008959FEF80EC0895DF93CF93A9
S1130BB01F930F93FF92EF92DF927B018C01689455
S1130BC005C0DA2EEF0172D0FE01E894A5912591BB
S1130BD0359145915591AEF3EF012CDEFE0197015D
S1130BE0A801DA9479F7DF90EF90FF900F911F91AD
S1130BF0CF91DF91089500240A941616170618065B
S1130C000906089500240A9412161306140605060C
S1130C100895092E0394000C11F4882352F0BB0F9D
S1130C2040F4BF2B11F460FF04C06F5F7F4F8F4F00
S1130C309F4F089557FD9058440F551F59F05F3F3B
S1130C4071F04795880F97FB991F61F09F3F79F0EA
S1130C5087950895121613061406551FF2CF46956C
S1130C60F1DF08C0161617061806991FF1CF8695EE
S1130C707105610508940895E894BB2766277727D2
S1130C80CB0197F908959B01AC0160E070E080E826
S1130C909FE389CE0BD0BDCFAEDF28F0B3DF18F0D1
S1130CA0952309F07ACF7FCF1124E7CFC3DFA0F3D8
S1130CB0959FD1F3950F50E0551F629FF001729FED
S1130CC0BB27F00DB11D639FAA27F00DB11DAA1F0C
S1130CD0649F6627B00DA11D661F829F2227B00D59
S1130CE0A11D621F739FB00DA11D621F839FA00DE4
S1130CF0611D221F749F3327A00D611D231F849F34
S1130D00600D211D822F762F6A2F11249F5750408A
S1130D108AF0E1F088234AF0EE0FFF1FBB1F661F25
S1130D20771F881F91505040A9F79E3F510570F0DE
S1130D3034CFA3CF5F3FECF3983EDCF386957795F1
S1130D406795B795F795E7959F5FC1F7FE2B880FD9
S1130D50911D9695879597F908959B01AC019ACFBB
S1130D60BB274A3031F4992322F4BDE29095819552
S1130D709F4F01C0BB27FB015527AA27880F991F46
S1130D80AA1FA41710F0A41B83955051B9F7A05DB6
S1130D90AA3308F0A95DA193009779F7B111B19333
S1130DA01192CB0100C0DC01FC01672F7191772304
S1130DB0E1F7329704C07C916D9370836291AE1712
S10D0DC0BF07C8F30895F894FFCFAD
S1130DCA0000803F43616C6962726174696E6720D6
S1130DDA746865204D61676E65746F6D65746572BC
S1130DEA202E2E2E2E2E2E2E204F6666736574000C
S1130DFA506C6561736520726F74617465207468E0
S1130E0A65206D61676E65746F6D657465722032F5
S1130E1A206F7220332074696D657320696E2063B4
S1130E2A6F6D706C6574652063697263756C657344
S1130E3A207769746820696E206F6E65206D696E0B
S1130E4A757465202E2E2E2E2E2E2E2E2E2E2E2EFE
S1130E5A2E005374617274696E6720446562756703
S1130E6A206461746120696E20003300320031000D
S1130E7A74733A2000456E64204465627567202DB8
S1130E8A2D20284F66667365742043616C6962720B
S1130E9A6174696F6E2900783A20006D47202079C1
S1130EAA3A20006D4720207A3A20006D47202020FE
S10D0EBA68656164696E673A200000
S9030000FC
